:100000000C946D020C948A020C948A020C948A025D
:100010000C948A020C948A020C948A020C948A0230
:100020000C948A020C948A020C9480150C94BB15D3
:100030000C948A020C948A020C948A020C948A0210
:100040000C948A020C948A020C948A020C948A0200
:100050000C948A020C948A020C948A020C948A02F0
:100060000C948A020C948A020C948A020C948A02E0
:100070000C948A020C948A020C948A020C948A02D0
:100080000C948A020C948A020C948A020C948A02C0
:100090000C948A020C948A020C948A020C948A02B0
:1000A0000C948A020C948A020C948A02151512157B
:1000B0000F150C150915061503150015FD14FA1476
:1000C000F714F414F114EE14EB14E814E514E2142C
:1000D000DF14DC14D914D614D314D014CD14CA14DC
:1000E000C714C414C114BE14BB14B814B514B2148C
:1000F000AF14AC14A914A614A314A0149D149A143C
:100100009714941491148E148B14881485148214EB
:100110007F147C1479147614731470146D146A149B
:100120006714641461145E145B14581455140001B0
:10013000000062011200020000740143000300008D
:10014000B7010401030904BB011402030904D1012E
:100150001603030904E9010C0001C11201803601F4
:1001600081361201000202000010C0167A0400015C
:100170000102030109024300020100C03209040028
:100180000001020201000524001001052401010103
:10019000042402060524060001070582031000401E
:1001A00009040100020A00000007050302400000E4
:1001B0000705840240000004030904140359006F7A
:1001C000007500720020004E0061006D00650000A7
:1001D00000160355005300420020005300650072D2
:1001E00000690061006C0000000C03310032003334
:1001F00000340035000000000000000000005F0037
:10020000000007000700147F147F14242A7F2A129D
:10021000231308646236495522500005030000008C
:100220001C2241000041221C0014083E081408084A
:100230003E08080050300000080808080800606008
:10024000000020100804023E5149453E00427F4014
:100250000042615149462141454B311814127F102B
:1002600027454545393C4A4949300171090503365E
:1002700049494936064949291E00363600000056CC
:1002800036000008142241001414141414004122F2
:1002900014080201510906324979413E7E111111BB
:1002A0007E7F494949363E414141227F4141221CDE
:1002B0007F494949417F090909013E4149497A7FFE
:1002C0000808087F00417F41002040413F017F082E
:1002D0001422417F404040407F020C027F7F04088F
:1002E000107F3E4141413E7F090909063E415121AF
:1002F0005E7F09192946464949493101017F0101BB
:100300003F4040403F1F2040201F3F4038403F6358
:100310001408146307087008076151494543007FBA
:1003200041410002040810200041417F0004020105
:100330000204404040404000010204002054545454
:10034000787F484444383844444420384444487F03
:100350003854545418087E0901020C5252523E7F00
:100360000804047800447D40002040443D007F1094
:1003700028440000417F40007C041804787C080475
:10038000047838444444387C1414140808141418AD
:100390007C7C080404084854545420043F44402002
:1003A0003C4040207C1C2040201C3C4030403C44D1
:1003B000281028440C5050503C4464544C440008CD
:1003C00036410000007F0000004136080010080898
:1003D000100878464146786E616E00696E660000CE
:1003E000407A10F35A00A0724E18090010A5D4E804
:1003F0000000E87648170000E40B54020000CA9A97
:100400003B000000E1F505000080969800000040E8
:10041000420F000000A0860100000010270000002D
:1004200000E803000000006400000000000A000073
:100430000000000100000000002C76D888DC674F27
:100440000823DFC1DFAE59E1B1B796E5E3E453C657
:100450003AE651997696E8E6C28426EB898C9B624F
:10046000ED407C6FFCEFBC9C9F40F2BAA56FA5F4F9
:1004700090055A2AF75C936B6CF9676DC11BFCE021
:10048000E40D47FEF520E6B500D0ED902E03009474
:100490003577050080841E080000204E0A00000009
:1004A000C80C333333330F986E12831141EF8D2113
:1004B00014893BE65516CFFEE6DB18D1844B381B7A
:1004C000F77C1D901DA4BBE424203284725E22813F
:1004D00000C9F124ECA1E53D270011241FBECFEF98
:1004E000DAE0DEBFCDBF11E0A0E0B1E0EAE8F6E47B
:1004F00002C005900D92AE3CB107D9F715E0AEEC05
:10050000B1E001C01D92A132B107E1F70E94CA1209
:100510000C9443230C9400005F926F927F928F9211
:100520009F92AF92BF92CF92DF92EF92FF920F9382
:100530001F93DF93CF93CDB7DEB7CA88DB88EC88F3
:10054000FD885AA08FA098A4A9A4BAA46FA878ACDB
:100550006E897F89888D998D0E94EC1E8B016BA519
:100560007CA58DA59EA50E94EC1E8BA19801280F4D
:10057000311D62177307E4F4670D711D0617170725
:10058000BCF4C701B6010E94EC1E8B01C501B40189
:100590000E94EC1ECB01860D911D0817190744F42B
:1005A00080E0050D111D601771071CF481E001C08A
:1005B00080E0CF91DF911F910F91FF90EF90DF903E
:1005C000CF90BF90AF909F908F907F906F905F90F3
:1005D00008955F926F927F928F929F92AF92BF9297
:1005E000CF92DF92EF92FF920F931F93DF93CF93FF
:1005F000CDB7DEB7CA88DB88EC88FD885AA08FA00B
:1006000098A4A9A4BAA46FA878AC6E897F89888DB4
:10061000998D0E94EC1E8B016BA57CA58DA59EA5D6
:100620000E94EC1E8BA19801280F311D62177307E1
:10063000F4F4670D711D6750704060177107BCF0CE
:10064000C701B6010E94EC1E8B01C501B4010E94D6
:10065000EC1ECB01860D911D8017910744F080E0C0
:10066000050D111D601771071CF481E001C080E0C9
:10067000CF91DF911F910F91FF90EF90DF90CF907E
:10068000BF90AF909F908F907F906F905F900895F4
:100690005F926F927F928F929F92AF92BF92CF9212
:1006A000DF92EF92FF920F931F93DF93CF93CDB71B
:1006B000DEB7CA88DB88EC88FD885AA08FA098A492
:1006C000A9A4BAA46FA878AC6E897F89888D998D0A
:1006D0000E94EC1E8B016BA57CA58DA59EA50E949A
:1006E000EC1E8BA19801280F311D6217730724F5AA
:1006F000670D711D6750704060177107ECF0C701FE
:10070000B6010E94EC1E8B01C501B40120E030E06F
:1007100040E85FE30E941B1E0E94EC1ECB01860D89
:10072000911D0817190744F480E0050D111D60178D
:1007300071071CF481E001C080E0CF91DF911F912F
:100740000F91FF90EF90DF90CF90BF90AF909F9070
:100750008F907F906F905F9008952091D00130919D
:10076000D1012115310509F1B901882777FD80955F
:10077000982F0E941F1F20E030E040E05FE30E94BE
:10078000D31F9B01AC016091D2017091D301809184
:10079000D4019091D5010E941C1E6093D2017093E8
:1007A000D3018093D4019093D5010895EF92FF92E5
:1007B0000F931F93E0908701F090880100918901C9
:1007C00010918A01C801B70120E030E040E050E01C
:1007D0000E94801E181624F081E08093CF0122C071
:1007E0002091D0013091D10121153105D9F0B90105
:1007F000882777FD8095982F0E941F1F2AE037EDEC
:1008000043EA5CEB0E94D31F9B01AC01C801B70116
:100810000E941C1E60938701709388018093890158
:1008200090938A011F910F91FF90EF90089580910E
:10083000D8019091D90101969093D9018093D80164
:10084000429769F48091D6019091D70101969093D7
:10085000D7018093D6011092D9011092D801089542
:10086000FF920F931F932DB73EB72A5230400FB619
:10087000F8943EBF0FBE2DBF2F5F3F4FD901E3E27B
:10088000F2E085E101900D928150E1F7D901559692
:10089000E1E8F2E085E101900D928150E1F70E94DC
:1008A000E9022DB73EB7265D3F4F0FB6F8943EBF25
:1008B0000FBE2DBFF82E882359F58DB79EB78A97A6
:1008C0000FB6F8949EBF0FBE8DBF2DB73EB72F5FFA
:1008D0003F4FD901E3E2F2E085E101900D928150B2
:1008E000E1F7D9015596E6E9F2E085E101900D9234
:1008F0008150E1F70E9448032DB73EB7265D3F4F78
:100900000FB6F8943EBF0FBE2DBF882309F4B3C0C5
:100910001092D1011092D0010091DE011091DF01FF
:100920000F5F1F4F1093DF010093DE01609187017D
:10093000709188018091890190918A0120E030E0D6
:1009400040E85FE30E941C1E9B01AC01609387019D
:10095000709388018093890190938A010A30110570
:100960006CF08091DC019091DD0101969093DD01A6
:100970008093DC011092DF011092DE018091DC0196
:100980009091DD01039759F0CA01B90120E030E0F0
:1009900048EC52E40E94CF1F88230CF46CC080E026
:1009A00090E0A8ECB2E48093870190938801A09333
:1009B0008901B0938A01FF20B1F060912302709108
:1009C0002402809125029091260220E030E040E848
:1009D0005FE30E941C1E60932302709324028093A5
:1009E0002502909326028DB79EB78A970FB6F8948A
:1009F0009EBF0FBE8DBF2DB73EB72F5F3F4FD901B2
:100A0000E3E2F2E085E101900D928150E1F7D90136
:100A10005596E6E9F2E085E101900D928150E1F70B
:100A20000E9448032DB73EB7265D3F4F0FB6F8949E
:100A30003EBF0FBE2DBF8823B1F06091230270919D
:100A40002402809125029091260220E030E040E8C7
:100A50005FE30E941B1E6093230270932402809325
:100A60002502909326021092DD011092DC01109273
:100A7000DF011092DE011F910F91FF900895AF9258
:100A8000BF92CF92EF920F931F936091B801709134
:100A9000B901882777FD8095982F0E941F1F8B0131
:100AA0009C0188E392E040E050E068E372E4E0906B
:100AB000B601C090B701E3EBAE2EE1E0BE2E0E947E
:100AC000C2191F910F91EF90CF90BF90AF900895F2
:100AD000AF92BF92CF92EF920F931F936091B801A4
:100AE0007091B901882777FD8095982F0E941F1F6C
:100AF0008B019C0189EF91E040E050E068E172E4F5
:100B0000E090B601C090B701F3EBAF2EF1E0BF2E3D
:100B10000E94C2191F910F91EF90CF90BF90AF909C
:100B20000895AF92BF92CF92EF920F931F9360916F
:100B3000B8017091B901882777FD8095982F0E94A0
:100B40001F1F8B019C0185ED92E040E050E060EFBB
:100B500071E4E090B601C090B701A3EBAA2EA1E02A
:100B6000BA2E0E94C2191F910F91EF90CF90BF90A3
:100B7000AF900895AF92BF92CF92EF92FF920F93F2
:100B80001F9383B1869580FF03C02FEF3FEF02C014
:100B900020E030E0489B02C021E030E089B186953A
:100BA00080FF0CC08091D0019091D1018A309105D5
:100BB00029F001969093D1018093D0011F9B0BC027
:100BC0008091D0019091D101009729F001979093E5
:100BD000D1018093D0018FB182958695877080FF77
:100BE00003C081E08093CE012115310571F1809120
:100BF000D0019091D101009709F4B2C0289FB001B3
:100C0000299F700D389F700D1124882777FD8095DE
:100C1000982F0E941F1F20E030E040E05FE30E9419
:100C2000D31F9B01AC01609123027091240280913B
:100C30002502909126020E941C1E6093230270934D
:100C40002402809325029093260283E292E00E9480
:100C5000EA196091230270912402809125029091FB
:100C6000260220E030E040E85FE30E94801E8823F7
:100C7000A4F483E292E040E050E060E87FE305E521
:100C800015E525E032E4E8E0EE2EB8E0CB2EAAEB45
:100C9000AA2EA1E0BA2E0E94C2196091230270917F
:100CA0002402809125029091260220E030E046E95E
:100CB00052E40E94CF1F1816A4F483E292E040E0B1
:100CC00050E066E972E405E515E525E032E4F8E078
:100CD000EF2EE8E0CE2EBAEBAB2EB1E0BB2E0E9499
:100CE000C219E0902302F090240200912502109195
:100CF0002602C801B70120E030E048ED51E40E942F
:100D0000801E87FD0AC0C801B70120E030E040E442
:100D100052E40E94CF1F18161CF52091D00130918B
:100D2000D10124303105E4F0B901882777FD8095A1
:100D3000982F0E941F1F2DEB37E346E855E30E94D2
:100D40001B1E0E94EC1E7093D1016093D001643091
:100D5000710534F483E090E09093D1018093D00149
:100D60001F910F91FF90EF90CF90BF90AF9008959B
:100D70008F929F92AF92BF92CF92EF920F931F9359
:100D8000519827982198509820988698859813E232
:100D9000812E12E0912EC40140E050E068E172E43F
:100DA00005E515E525E032E4B8E0EB2EA8E0CA2E13
:100DB000FAEBAF2EF1E0BF2E0E94C219C4010E94CF
:100DC000EA191F910F91EF90CF90BF90AF909F9035
:100DD0008F900895AF92BF92CF92EF920F931F938F
:100DE0000E94411780E065E040E051E021E00E9470
:100DF000201980E06FE040E151E021E00E942019DD
:100E000080E069E14CE151E021E00E94201980E09E
:100E100063E245E251E021E00E9420190E9440195E
:100E2000189B04C00E9441171092840183E292E053
:100E300040E050E068E172E405E515E525E032E4C4
:100E4000A8E0EA2EF8E0CF2EEAEBAE2EE1E0BE2ECF
:100E50000E94C21983E292E00E94EA191F910F9149
:100E6000EF90CF90BF90AF900895EF92FF920F93C5
:100E70001F93F82EE62E8DB79EB708970FB6F894FD
:100E80009EBF0FBE8DBFEDB7FEB7319607E712E0EC
:100E9000ADB7BEB712961C930E9311978AE090E0FF
:100EA0009383828384E391E095838483578346838D
:100EB0000E9458228DB79EB708960FB6F8949EBF31
:100EC0000FBE8DBF8F2D6E2DA80121E00E9420192D
:100ED0001F910F91FF90EF9008950E94411780910C
:100EE0008501909186011816190684F46091870196
:100EF000709188018091890190918A0120E030E011
:100F000040E050E00E94801E18162CF083E16AE059
:100F100047E351E004C089E16AE041E451E021E0A7
:100F20000E94201980E064E14AE451E021E00E943F
:100F300020196091D2017091D3018091D4019091D8
:100F4000D5010E94EC1E9B01AC0180E464E1A90183
:100F50000E94350780E06EE143E551E021E00E9408
:100F600020194091D6015091D70180E46EE10E9492
:100F7000350787E068E248E551E021E00E9420194A
:100F80000E94401908950E9441178EE06AE047E6EA
:100F900051E021E00E94201980E06EE14AE451E036
:100FA00021E00E9420196091D2017091D3018091BB
:100FB000D4019091D5010E94EC1E9B01AC0180E40C
:100FC0006EE1A9010E94350780E068E243E551E047
:100FD00021E00E9420194091D6015091D70180E470
:100FE00068E20E9435078FB1829586958695837059
:100FF00080FF04C01092CE010E9441170E94401948
:10100000089580E060E043E751E021E00E9420196C
:1010100040918501509186018AE060E00E94350789
:1010200080E260E049E751E021E00E942019409110
:10103000D0015091D1018AE260E00E9435078BE334
:1010400060E04EE751E021E00E94201960918701A5
:10105000709188018091890190918A010E94EC1E13
:101060009B01AC0185E460E0A9010E94350783E2A1
:1010700092E00E94EA190E94401908950F9380E0BF
:1010800068E042E528E001E00E947C1780E06FE222
:1010900043E52FE20E947C1780E068E040E02FE209
:1010A0000E947C1783E568E043E52FE20E947C17ED
:1010B0008BE169E04BE12EE20E947C1787E369E057
:1010C00047E32EE20E947C1783E292E00E94EA1935
:1010D0000E9440190F910895AF92BF92CF92EF9264
:1010E0000F931F9360918B0170918C01882777FD7E
:1010F0008095982F0E941F1F2DEC3CE44DE053E497
:101100000E94D31F0E94F11EDC01CB010E943321FB
:101110000E942E21909581959F4F6CE370E00E9474
:101120007F20805D9040AA2797FDA095BA2FBC0133
:10113000CD010E941F1F8B019C0186E992E040E0D7
:1011400050E068E672E4F7E0EF2EE8E0CE2EBBEA6E
:10115000AB2EB1E0BB2E0E94C2191F910F91EF90F0
:10116000CF90BF90AF900895AF92BF92CF92EF9281
:101170000F931F9360918B0170918C01882777FDED
:101180008095982F0E941F1F2DEC3CE44DE053E406
:101190000E94D31F0E94F11EDC01CB010E9433216B
:1011A0000E942E21909581959F4F6CE370E00E94E4
:1011B0007F20805D9040AA2797FDA095BA2FBC01A3
:1011C000CD010E941F1F8B019C0181E892E040E04D
:1011D00050E060EA71E4E7E0EE2EB8E0CB2EABEA37
:1011E000AA2EA1E0BA2E0E94C2191F910F91EF9072
:1011F000CF90BF90AF9008958F929F92AF92BF9281
:10120000CF92DF92EF92FF920F931F93CF93DF93D2
:1012100020918B0130918C0183ED96E0AC01249FED
:10122000C001259F900D349F900D11240E94332101
:101230000E942E2162E070E00E947F20019739F029
:1012400018E0812EB8E09B2EC3EAD1E006C0A5E0ED
:101250008A2EF7E09F2ECCE9D1E00E942E218C014E
:101260000E942E215C016CE170E068197109C801CF
:101270000E947F20C796AA2797FDA095BA2FBC0190
:10128000CD010E941F1F6B017C01882799278A19B5
:101290009B0960E170E00E947F2089199109AA27CB
:1012A00097FDA095BA2FBC01CD010E941F1F8B0195
:1012B0009C0180EC92E0B701A601E82CC92C5E01EC
:1012C0000E94C219DF91CF911F910F91FF90EF9073
:1012D000DF90CF90BF90AF909F908F9008958F92A6
:1012E0009F92AF92BF92CF92DF92EF92FF920F93B5
:1012F0001F93CF93DF9320918B0130918C0181E676
:1013000096E0AC01249FC001259F900D349F900D65
:1013100011240E9433210E942E2162E070E00E947D
:101320007F20019739F028E0822E98E0992EC3EAB9
:10133000D1E006C085E0882E07E0902ECCE9D1E010
:101340000E942E218C010E942E215C016CE170E034
:1013500068197109C8010E947F20C796AA2797FDC6
:10136000A095BA2FBC01CD010E941F1F6B017C010B
:10137000882799278A199B0960E170E00E947F20E5
:1013800089199109AA2797FDA095BA2FBC01CD0113
:101390000E941F1F8B019C0184E193E0B701A6010D
:1013A000E82CC92C5E010E94C219DF91CF911F91D8
:1013B0000F91FF90EF90DF90CF90BF90AF909F90F4
:1013C0008F9008958F929F92AF92BF92CF92DF92AB
:1013D000EF92FF920F931F93CF93DF9320918B0196
:1013E00030918C018CE196E0AC01249FC001259FD7
:1013F000900D349F900D11240E9433210E942E21C4
:1014000062E070E00E947F20019739F068E0862E4C
:1014100058E0952EC3EAD1E006C045E0842E37E0BF
:10142000932ECCE9D1E00E942E218C010E942E2126
:101430005C016CE170E068197109C8010E947F20AD
:10144000C796AA2797FDA095BA2FBC01CD010E948F
:101450001F1F6B017C01882799278A199B0960E16E
:1014600070E00E947F2089199109AA2797FDA09515
:10147000BA2FBC01CD010E941F1F8B019C018DE47E
:1014800092E0B701A601E82CC92C5E010E94C219A6
:10149000DF91CF911F910F91FF90EF90DF90CF9050
:1014A000BF90AF909F908F9008958F929F92AF9230
:1014B000BF92CF92DF92EF92FF920F931F93CF9341
:1014C000DF9320918B0130918C0183EC97E0AC018C
:1014D000249FC001259F900D349F900D11240E94E0
:1014E00033210E942E2162E070E00E947F2001974C
:1014F00039F0A8E08A2EF8E09F2EC3EAD1E006C0BA
:10150000E5E08E2E77E0972ECCE9D1E00E942E21E7
:101510008C010E942E215C016CE170E06819710958
:10152000C8010E947F20AA2797FDA095BA2FBC0171
:10153000CD010E941F1F6B017C01882799278A1902
:101540009B0960E170E00E947F2089199109AA2718
:1015500097FDA095BA2FBC01CD010E941F1F8B01E2
:101560009C018BEA92E0B701A601E82CC92C5E0130
:101570000E94C219DF91CF911F910F91FF90EF90C0
:10158000DF90CF90BF90AF909F908F9008958F92F3
:101590009F92AF92BF92CF92DF92EF92FF920F9302
:1015A0001F93CF93DF9320918B0130918C018FEAB1
:1015B00096E0AC01249FC001259F900D349F900DB3
:1015C00011240E9433210E942E2162E070E00E94CB
:1015D0007F20019739F088E0882E08E0902EC3EA3A
:1015E000D1E006C015E0812EB7E09B2ECCE9D1E01A
:1015F0000E942E218C010E942E215C016CE170E082
:1016000068197109C8010E947F20AA2797FDA0953B
:10161000BA2FBC01CD010E941F1F6B017C018827DE
:1016200099278A199B0960E170E00E947F2089193F
:101630009109AA2797FDA095BA2FBC01CD010E9460
:101640001F1F8B019C0184EE91E0B701A601E82CDD
:10165000C92C5E010E94C219DF91CF911F910F9199
:10166000FF90EF90DF90CF90BF90AF909F908F90C2
:1016700008958F929F92AF92BF92CF92DF92EF9296
:10168000FF920F931F93CF93DF9320918B013091A3
:101690008C0184E495E0AC01249FC001259F900D4E
:1016A000349F900D11240E9433210E942E2162E06C
:1016B00070E00E947F20019739F0C3EAD1E048E052
:1016C000842E38E0932E06C0CCE9D1E025E0822EAE
:1016D00097E0992E0E942E218C010E942E215C0100
:1016E0006CE170E068197109C8010E947F20AA2787
:1016F00097FDA095BA2FBC01CD010E941F1F6B0161
:101700007C01882799278A199B0960E170E00E9473
:101710007F2089199109AA2797FDA095BA2FBC01AE
:10172000CD010E941F1F8B019C018EE092E0B7014A
:10173000A601E82CC92C5E010E94C219DF91CF914D
:101740001F910F91FF90EF90DF90CF90BF90AF90DF
:101750009F908F9008958F929F92AF92BF92CF9259
:10176000DF92EF92FF920F931F93CF93DF9320911D
:101770008B0130918C01C901A4E0880F991FAA95B3
:10178000E1F7821B930B0E9433210E942E2163E01C
:1017900070E00E947F208130910529F4CFE8D1E0EC
:1017A000F5E08F2E0EC08230910539F0C9E9D1E005
:1017B000E8E08E2E73E0972E06C0C4E9D1E066E023
:1017C000862E55E0952E0E942E218C010E942E21FE
:1017D0005C016CE170E068197109C8010E947F200A
:1017E0004C96AA2797FDA095BA2FBC01CD010E9467
:1017F0001F1F6B017C01882799278A199B0960E1CB
:1018000070E00E947F2089199109AA2797FDA09571
:10181000BA2FBC01CD010E941F1F8B019C018FEFCD
:1018200092E0B701A601E82CC92C5E010E94C21902
:10183000DF91CF911F910F91FF90EF90DF90CF90AC
:10184000BF90AF909F908F9008958F929F92AF928C
:10185000BF92CF92DF92EF92FF920F931F93CF939D
:10186000DF9320918B0130918C018DE295E0AC01EA
:10187000249FC001259F900D349F900D11240E943C
:1018800033210E942E2163E070E00E947F2081308E
:10189000910539F425E0822E95E0992ECFE8D1E02C
:1018A00010C08230910539F088E0882E03E0902E38
:1018B000C9E9D1E006C016E0812EB5E09B2EC4E94F
:1018C000D1E00E942E218C010E942E215C016CE14E
:1018D00070E068197109C8010E947F204C96AA2700
:1018E00097FDA095BA2FBC01CD010E941F1F6B016F
:1018F0007C01882799278A199B0960E170E00E9482
:101900007F2089199109AA2797FDA095BA2FBC01BC
:10191000CD010E941F1F8B019C018AEE92E0B7014E
:10192000A601E82CC92C5E010E94C219DF91CF915B
:101930001F910F91FF90EF90DF90CF90BF90AF90ED
:101940009F908F9008958F929F92AF92BF92CF9267
:10195000DF92EF92FF920F931F93CF93DF9320912B
:101960008B0130918C018AE193E0AC01249FC0018E
:10197000259F900D349F900D11240E9433210E94C9
:101980002E2163E070E00E947F208130910539F4C0
:10199000E5E08E2E75E0972ECFE8D1E010C08230C2
:1019A000910539F068E0862E53E0952EC9E9D1E023
:1019B00006C046E0842E35E0932EC4E9D1E00E94B3
:1019C0002E218C010E942E215C016CE170E06819CF
:1019D0007109C8010E947F204C96AA2797FDA09507
:1019E000BA2FBC01CD010E941F1F6B017C0188270B
:1019F00099278A199B0960E170E00E947F2089196C
:101A00009109AA2797FDA095BA2FBC01CD010E948C
:101A10001F1F8B019C0182E692E0B701A601E82C12
:101A2000C92C5E010E94C219DF91CF911F910F91C5
:101A3000FF90EF90DF90CF90BF90AF909F908F90EE
:101A40000895AF92BF92CF92EF920F931F932DB74D
:101A50003EB72A5230400FB6F8943EBF0FBE2DBF9E
:101A60002F5F3F4FD901E3E2F2E085E101900D9253
:101A70008150E1F7D9015596E2E6F2E085E1019067
:101A80000D928150E1F70E948C022DB73EB7265D82
:101A90003F4F0FB6F8943EBF0FBE2DBF882309F00D
:101AA00057C18DB79EB78A970FB6F8949EBF0FBEE9
:101AB0008DBF2DB73EB72F5F3F4FD901E3E2F2E074
:101AC00085E101900D928150E1F7D9015596EAEE3A
:101AD000F2E085E101900D928150E1F70E948C02C5
:101AE0002DB73EB7265D3F4F0FB6F8943EBF0FBEF1
:101AF0002DBF882309F02CC18DB79EB78A970FB6EA
:101B0000F8949EBF0FBE8DBF2DB73EB72F5F3F4FDE
:101B1000D901E3E2F2E085E101900D928150E1F715
:101B2000D9015596EFEFF2E085E101900D928150D9
:101B3000E1F70E948C022DB73EB7265D3F4F0FB6EE
:101B4000F8943EBF0FBE2DBF882309F001C18DB7A9
:101B50009EB78A970FB6F8949EBF0FBE8DBF2DB764
:101B60003EB72F5F3F4FD901E3E2F2E085E10190FC
:101B70000D928150E1F7D9015596EEE0F2E085E152
:101B800001900D928150E1F70E948C022DB73EB773
:101B9000265D3F4F0FB6F8943EBF0FBE2DBF882382
:101BA00009F0D6C08DB79EB78A970FB6F8949EBF3E
:101BB0000FBE8DBF2DB73EB72F5F3F4FD901E3E278
:101BC000F2E085E101900D928150E1F7D90155963F
:101BD000E4EEF1E085E101900D928150E1F70E9481
:101BE0008C022DB73EB7265D3F4F0FB6F8943EBF2F
:101BF0000FBE2DBF882309F0ABC08DB79EB78A9763
:101C00000FB6F8949EBF0FBE8DBF2DB73EB72F5FA6
:101C10003F4FD901E3E2F2E085E101900D9281505E
:101C2000E1F7D9015596EBEAF2E085E101900D92DA
:101C30008150E1F70E948C022DB73EB7265D3F4FE1
:101C40000FB6F8943EBF0FBE2DBF882309F080C0A9
:101C50008DB79EB78A970FB6F8949EBF0FBE8DBF03
:101C60002DB73EB72F5F3F4FD901E3E2F2E085E1A8
:101C700001900D928150E1F7D9015596EDE4F2E023
:101C800085E101900D928150E1F70E948C022DB701
:101C90003EB7265D3F4F0FB6F8943EBF0FBE2DBF37
:101CA000882309F055C08DB79EB78A970FB6F89470
:101CB0009EBF0FBE8DBF2DB73EB72F5F3F4FD901DF
:101CC000E3E2F2E085E101900D928150E1F7D90164
:101CD0005596E4E1F3E085E101900D928150E1F742
:101CE0000E948C022DB73EB7265D3F4F0FB6F89489
:101CF0003EBF0FBE2DBF882359F58DB79EB78A977B
:101D00000FB6F8949EBF0FBE8DBF2DB73EB72F5FA5
:101D10003F4FD901E3E2F2E085E101900D9281505D
:101D2000E1F7D9015596E0ECF2E085E101900D92E2
:101D30008150E1F70E948C022DB73EB7265D3F4FE0
:101D40000FB6F8943EBF0FBE2DBF882309F46FC0B5
:101D50000E94A30C0E94250C6091EE027091EF028C
:101D60008091F0029091F10220E030E040E851E4EF
:101D70000E941B1E6093EE027093EF028093F002AC
:101D80009093F1020E94AB0B6091030370910403E6
:101D9000809105039091060320E030E040E052E49A
:101DA0000E941B1E6093030370930403809305033A
:101DB0009093060380918501909186010A979093F4
:101DC00086018093850180E090E0A8ECB2E48093E6
:101DD000870190938801A0938901B0938A011092A2
:101DE000DB011092DA011092D1011092D001109211
:101DF000DD011092DC011092DF011092DE0183E21E
:101E000092E040E050E068E172E405E515E525E088
:101E100032E4B8E0EB2EA8E0CA2EFAEBAF2EF1E0E8
:101E2000BF2E0E94C21983E292E00E94EA198DB788
:101E30009EB78A970FB6F8949EBF0FBE8DBF2DB781
:101E40003EB72F5F3F4FD901E3E2F2E085E1019019
:101E50000D928150E1F7D9015596E1E8F2E085E174
:101E600001900D928150E1F70E948C022DB73EB790
:101E7000265D3F4F0FB6F8943EBF0FBE2DBF88239F
:101E800051F58DB79EB78A970FB6F8949EBF0FBED7
:101E90008DBF2DB73EB72F5F3F4FD901E3E2F2E090
:101EA00085E101900D928150E1F7D9015596E6E95F
:101EB000F2E085E101900D928150E1F70E948C02E1
:101EC0002DB73EB7265D3F4F0FB6F8943EBF0FBE0D
:101ED0002DBF882339F0109286011092850181E090
:101EE0008093CF011F910F91EF90CF90BF90AF9053
:101EF0000895EF92FF920F931F93CF93DF93C091BA
:101F0000D001D091D1011C161D060CF0EBC0BE0112
:101F1000882777FD8095982F0E941F1F2AE939E9AD
:101F200049E15EE30E94D31F7B018C016091660250
:101F3000709167028091680290916902A8019701EF
:101F40000E941C1E60936602709367028093680271
:101F5000909369026091EE027091EF028091F0021D
:101F60009091F102A80197010E941C1E6093EE025D
:101F70007093EF028093F0029093F102609103035B
:101F8000709104038091050390910603A8019701C5
:101F90000E941C1E60930303709304038093050347
:101FA00090930603609112027091130280911402C3
:101FB00090911502A80197010E941C1E60931202C5
:101FC0007093130280931402909315026091E801BC
:101FD0007091E9018091EA019091EB01A8019701CC
:101FE0000E941C1E6093E8017093E9018093EA014E
:101FF0009093EB016091AF027091B0028091B102B9
:102000009091B202A80197010E941C1E6093AF023A
:102010007093B0028093B1029093B202609151022A
:10202000709152028091530290915402A80197013D
:102030000E941C1E609351027093520280935302BF
:1020400090935402609118037091190380911A03C0
:1020500090911B03A80197010E941C1E6093180316
:102060007093190380931A0390931B036091C40229
:102070007091C5028091C6029091C702A801970194
:102080000E941C1E6093C4027093C5028093C60216
:102090009093C702609185027091860280918702B9
:1020A00090918802A80197010E941C1E60938502EE
:1020B00070938602809387029093880260919A02BF
:1020C00070919B0280919C0290919D02A8019701C2
:1020D0000E941C1E60939A0270939B0280939C0244
:1020E00090939D026091D2017091D3018091D401AF
:1020F0009091D50120E030E249E955E40E94CF1FDC
:1021000088230CF44BC0BE01882777FD8095982F5B
:102110000E941F1F2AE939E949E15EE30E94D31FAB
:102120007B018C016091D9027091DA028091DB020F
:102130009091DC02A80197010E941C1E6093D902B5
:102140007093DA028093DB029093DC026091FD01D0
:102150007091FE018091FF0190910002A80197010A
:102160000E941C1E6093FD017093FE018093FF018D
:102170009093000260913C0270913D0280913E027A
:1021800090913F02A80197010E941C1E60933C029F
:1021900070933D0280933E0290933F0282E692E06C
:1021A0000E94EA198AEE92E00E94EA198FEF92E00B
:1021B0000E94EA198EE092E00E94EA1984EE91E012
:1021C0000E94EA198BEA92E00E94EA198DE492E0FB
:1021D0000E94EA1984E193E00E94EA1980EC92E0FF
:1021E0000E94EA1981E892E00E94EA1986E992E0E9
:1021F0000E94EA196091D2017091D3018091D401BB
:102200009091D50120E030E249E955E40E94CF1FCA
:10221000882364F085ED92E00E94EA1989EF91E04D
:102220000E94EA1988E392E00E94EA198091CF01A6
:10223000882309F0C6C060916602709167028091A0
:1022400068029091690220E030E040E452E40E948C
:10225000CF1F181614F40E94A30C6091EE02709127
:10226000EF028091F0029091F10220E030E040E432
:1022700052E40E94CF1F181614F40E94250C60919E
:10228000030370910403809105039091060320E0FD
:1022900030E040E452E40E94CF1F181614F40E946C
:1022A000AB0B609112027091130280911402909115
:1022B000150220E030E040E452E40E94CF1F1816DF
:1022C00014F40E94390B6091E8017091E90180914A
:1022D000EA019091EB0120E030E040E452E40E94FA
:1022E000CF1F181614F40E94C70A6091AF027091B4
:1022F000B0028091B1029091B20220E030E040E45F
:1023000052E40E94CF1F181614F40E94550A6091DF
:10231000510270915202809153029091540220E038
:1023200030E040E452E40E94CF1F181614F40E94DB
:10233000E209609118037091190380911A0390913A
:102340001B0320E030E040E452E40E94CF1F181647
:1023500014F40E946F096091C4027091C5028091CB
:10236000C6029091C70220E030E040E452E40E94AF
:10237000CF1F181614F40E94FC086091850270911A
:102380008602809187029091880220E030E040E44C
:1023900052E40E94CF1F181614F40E94B4086091F2
:1023A0009A0270919B0280919C0290919D0220E084
:1023B00030E040E452E40E94CF1F181614F40E944B
:1023C0006C08DF91CF911F910F91FF90EF900895CE
:1023D0000E9441170E94790F0E94BA050E940108CD
:1023E0000E943E080E94AD030E94D6030E94210D68
:1023F0000E9430040E94170480918501909186010B
:102400001816190684F46091D2017091D30180915D
:10241000D4019091D50120E030E44CE955E40E94CC
:10242000CF1F88231CF081E08093CF010E944019C8
:1024300008950E9441170E94A30C0E94250C6091F0
:10244000EE027091EF028091F0029091F10220E093
:1024500030E040E851E40E941B1E6093EE0270934E
:10246000EF028093F0029093F1020E94AB0B609117
:10247000030370910403809105039091060320E00B
:1024800030E040E052E40E941B1E6093030370930F
:10249000040380930503909306030E94390B0E9466
:1024A000C70A6091E8017091E9018091EA01909179
:1024B000EB0120E030E040E851E40E941B1E6093F5
:1024C000E8017093E9018093EA019093EB010E9487
:1024D000550A6091AF027091B0028091B102909163
:1024E000B20220E030E040E052E40E941B1E609304
:1024F000AF027093B0028093B1029093B2020E9437
:10250000E2090E946F09609118037091190380918C
:102510001A0390911B0320E030E040E851E40E9450
:102520001B1E609318037093190380931A039093F2
:102530001B030E94FC086091C4027091C502809147
:10254000C6029091C70220E030E040E052E40E94D1
:102550001B1E6093C4027093C5028093C6029093C1
:10256000C7020E94B4080E946C080E9491050E9454
:1025700068050E943F050895E1E6F0E080E8808369
:1025800081E080838FE30E9474190E9441170E94AA
:10259000401908959F92AF92BF92CF92DF92EF922F
:1025A000FF920F931F93CF93DF930E94BC120E9460
:1025B000B80699249394C4E6D0E00F2EF0E0AF2E35
:1025C000F0E0BF2EF8ECCF2EF2E4DF2EF02D0F2E30
:1025D000F0E0EF2EF0E0FF2EF0E00F2FF0E01F2FE5
:1025E000F02D80918401882329F00E94EA060E9440
:1025F0001912F7CF8091CE01882319F00E94C307EA
:10260000F0CF8091CF01882329F10E946D077E9B36
:10261000E8CF909284011092CF01D0938601C093AD
:102620008501A0928701B0928801C0928901D09261
:102630008A011092D1011092D001E092D201F09261
:10264000D3010093D4011093D5011092D7011092B9
:10265000D601C7CF80918B0190918C010196909308
:102660008C0180938B010E94E811BBCF81E08093A5
:10267000D70080EA8093D80082E189BD09B400FECA
:10268000FDCF80E98093D8001092E0001092E00125
:102690001092E1018CE08093E2007894089580919B
:1026A000E00108952FB7F8948091E001882369F044
:1026B00083E08093E9009BE68091E80085FD09C0F6
:1026C00082FF03C09093E800F7CF2FBF2FEF3FEFBB
:1026D0000CC09091F1008091E80085FD03C08BE66D
:1026E0008093E8002FBF292F30E0C90108952FB74C
:1026F000F8948091E001882311F490E010C083E009
:102700008093E9009091F200992349F48091E800C8
:1027100082FF05C085FD03C08BE68093E8002FBFD4
:10272000892F08958091E001882371F09FB7F89474
:1027300083E08093E9002BE602C02093E8008091BB
:10274000E80085FDFACF9FBF0895482F8091E001F2
:102750008823D9F12FB7F89484E08093E900809121
:10276000E301882341F08091E80085FD02C02FBF7E
:1027700012C01092E3019091E400975E34E08091E2
:10278000E80085FD13C02FBF8091E400891729F46C
:1027900081E08093E3018FEF08958091E001882329
:1027A000A1F02FB7F8943093E900E9CF4093F100FE
:1027B0008091E80085FD03C08AE38093E80085E00E
:1027C0008093E2012FBF80E008958FEF0895282FB6
:1027D0008091E001882351F09FB7F89484E08093C2
:1027E000E9008091E80085FD03C09FBF8FEF089549
:1027F0002093F1008091E80085FD03C08AE3809377
:10280000E80085E08093E2019FBF80E00895CF93C8
:10281000DF93EC018091E001882309F41CC13FB7EC
:10282000F89484E08093E9008091E301882309F41F
:1028300008C18091E80085FD02C03FBF0CC1109225
:10284000E301FFC09091E400975E8091E80085FD70
:1028500013C03FBF8091E400891721F481E0809389
:10286000E301F9C08091E001882309F4F4C03FB787
:10287000F894B093E900E9CF8091F200242F281B4F
:10288000822F90E06817790708F4262F822F90E0B6
:102890008134910508F0C6C08A5A9F4FFC01EE0FA3
:1028A000FF1F0590F491E02D099489918093F10028
:1028B00089918093F10089918093F10089918093AF
:1028C000F10089918093F10089918093F1008991C1
:1028D0008093F10089918093F10089918093F100B8
:1028E00089918093F10089918093F100899180937F
:1028F000F10089918093F10089918093F100899191
:102900008093F10089918093F10089918093F10087
:1029100089918093F10089918093F100899180934E
:10292000F10089918093F10089918093F100899160
:102930008093F10089918093F10089918093F10057
:1029400089918093F10089918093F100899180931E
:10295000F10089918093F10089918093F100899130
:102960008093F10089918093F10089918093F10027
:1029700089918093F10089918093F10089918093EE
:10298000F10089918093F10089918093F100899100
:102990008093F10089918093F10089918093F100F7
:1029A00089918093F10089918093F10089918093BE
:1029B000F10089918093F10089918093F1008991D0
:1029C0008093F10089918093F10089918093F100C7
:1029D00089918093F10089918093F100899180938E
:1029E000F10089918093F10089918093F1008991A0
:1029F0008093F10089918093F10089918093F10097
:102A000089918093F10089918093F100899180935D
:102A1000F10089918093F10089918093F10089916F
:102A20008093F10089918093F1008091E80085FD09
:102A300002C05093E800621B7109A093E2013FBFFE
:102A400004C0B4E040E45AE3A5E06115710509F063
:102A5000F9CE80E001C08FEFDF91CF9108959FB74D
:102A6000F8948091E201882341F084E08093E900AA
:102A70008AE38093E8001092E2019FBF089560917D
:102A8000C2017091C3018091C4019091C501089564
:102A90008091C60108958091C70108958091C80171
:102AA00008958091E1010895282F9FB7F8948091AF
:102AB000E001882339F082E08093E9008091E8000A
:102AC00085FD03C09FBF8FEF089581EA8093F100D9
:102AD00080E28093F1001092F1001092F1001092C8
:102AE000F1001092F10081E08093F1001092F1006A
:102AF0002093F1008AE38093E8009FBF80E008956F
:102B00001F920F920FB60F9211248F939F93809173
:102B1000E1001092E100982F83FF11C01092E900AC
:102B200081E08093EB001092EC0082E18093ED0055
:102B300088E08093F0001092E0011092E10192FF92
:102B400013C08091E001882379F08091E20188230D
:102B500059F081508093E201882331F484E080931E
:102B6000E9008AE38093E8009F918F910F900FBE58
:102B70000F901F9018951F920F920FB60F9211246D
:102B80000F931F932F933F934F935F936F937F9375
:102B90008F939F93AF93BF93EF93FF931092E900AE
:102BA0008091E80083FF3CC14091F1003091F10039
:102BB0008091F100682F70E02091F100922F80E069
:102BC000682B792B8091F100A82FB0E02091F100C3
:102BD000922F80E0A82BB92B1091F1000091F10009
:102BE00082EF8093E800363009F05AC025E331E0E7
:102BF000A90145505040F901379785919491861766
:102C0000970701F5FA01859194918A179B07D1F4F2
:102C10009A012E5F3F4FF901659174912E5F3F4FEE
:102C2000F9014491212F30E0902F80E0282B392B9F
:102C30002F3F310519F010F02FEF30E0241758F432
:102C4000422F09C0295F3F4F495F5F4FF1E02F35A9
:102C50003F0789F6E5C05EEF8091E800282F30E05D
:102C6000C90185709070892BB9F322FDDCC0342F27
:102C7000413108F030E1232FCB0106C0FC01019661
:102C8000E491E093F10021502223C1F7630F711DFD
:102C9000431B5093E8004423F9F63031E9F2C3C0F6
:102CA000353061F48EEF8093E8008091E80080FF7A
:102CB000FCCF862F80688093E300B5C0393051F592
:102CC000442309F0ADC06093E0011092E10110923D
:102CD000E2018EEF8093E80088E591E021E0209307
:102CE000E900FC010196E491E093EB00EE2369F02A
:102CF000AC014F5F5F4FFC0184918093EC00CA01EF
:102D00000196FA0134913093ED002F5F253039F7A9
:102D10008EE181C0383061F4403809F081C0809183
:102D2000E80080FFFCCF8091E0018093F10050C06B
:102D3000313289F4413A09F073C08091E80080FF94
:102D4000FCCFE2ECF1E081918093F10081E0E93C7D
:102D5000F807C9F73DC03032A1F4413209F060C034
:102D60008091E80082FFFCCFE2ECF1E08091F1007D
:102D7000819381E0E93CF807C9F78BEF8093E80085
:102D800027C0323251F4413209F04AC06093E10168
:102D90008091E80080FFFCCF1BC03323E9F48091D1
:102DA000E80080FFFCCF423811F080E00DC0A09316
:102DB000E9008091EB0090E025E0969587952A95B3
:102DC000E1F781701092E9008093F1001092F10018
:102DD0008EEF8093E80027C0313011F0333001F5D9
:102DE0004230F1F4672BE1F42A2F2F77822F8150A4
:102DF0008430B0F48EEF8093E8002093E900333004
:102E000079F089E18093EB0081E090E002C0880FC7
:102E1000991F2A95E2F78093EA001092EA0003C016
:102E200081E28093EB00FF91EF91BF91AF919F9171
:102E30008F917F916F915F914F913F912F911F9152
:102E40000F910F900FBE0F901F90189587E88093F9
:102E50007A000895982F9F71906490937C008072FF
:102E600080937B0080917A00806480937A008091C7
:102E70007A0086FDFCCF2091780030917900C9015D
:102E80000895E9E2F3E0119285E0E132F807D9F71D
:102E90000895843580F5603370F5262F26952695A4
:102EA0002695677090E0442399F0E4E52E9FF001A9
:102EB0001124E80FF91FE75DFC4F81E090E002C0AC
:102EC000880F991F6A95E2F72081282B20830895A7
:102ED000E4E52E9FF0011124E80FF91FE75DFC4F98
:102EE00081E090E002C0880F991F6A95E2F7809513
:102EF00020812823208308952F923F924F925F9242
:102F00006F927F928F929F92AF92BF92CF92DF92F9
:102F1000EF92FF920F931F93DF93CF93CDB7DEB75E
:102F20002E970FB6F894DEBF0FBECDBFE82ED62E7B
:102F3000142FF22E0C878417F9F4862E9924A22ED2
:102F4000BB240EC08E2D682D4C850E944917DF14BE
:102F500020F40894811C911C03C0089481089108F6
:102F6000DF1428F4A814B9040CF4FCC0EBCF8A14C5
:102F70009B040CF4F7C0E6CF6217F9F4882E99246D
:102F8000A42EBB240EC0882D6D2D4C850E944917A0
:102F9000E11620F40894811C911C03C00894810858
:102FA0009108E11628F4A814B9040CF4DBC0EBCFA7
:102FB0008A149B040CF4D6C0E6CF481720F41E2DCB
:102FC000E42EF62ED22E812F90E09A838983AE2CA8
:102FD000BB24BC016A197B09882777FD8095982F4F
:102FE0000E941F1F6F83788789879A872F2C33242D
:102FF0008D2C9924B10168197909882777FD80956E
:10300000982F0E941F1F6B837C838D839E832F814B
:10301000388549855A850E94841E2B013C0120E099
:1030200030E040E050E00E94CF1F87FF04C077FAF5
:10303000709477F870940F2EF0E0CF2EF0E0DF2E32
:10304000F0E0EF2EF0E0FF2EF02D74C0AB868A2D5D
:10305000682D4C850E944917C701B601A301920152
:103060000E941C1E35C08B85682D4C850E94491717
:103070001E861D866B817C818D819E8120E030E0E3
:1030800040E050E00E94CF1F181624F4E1E0F0E089
:10309000FE87ED8700E010E06B817C818D819E8151
:1030A00020E030E040E050E00E94801E882314F4CD
:1030B00001E010E08D859E85801B910B880E991E86
:1030C000C701B60120E030E040E85FE30E941B1E2C
:1030D0006B017C0120E030E040E05FE30E94CF1F05
:1030E0008823ACF06B817C818D819E8120E030E073
:1030F00040E050E00E94CF1F18162CF42814390429
:103100000CF0B1CF04C0821493040CF0ACCF6F81EB
:10311000788589859A8520E030E040E050E00E9483
:10312000CF1F181624F40894A11CB11C03C00894E6
:10313000A108B1086F81788589859A8520E030E003
:1031400040E050E00E94CF1F181634F4E981FA8164
:10315000EA15FB053CF07ACF89819A81A816B90659
:103160000CF074CF2E960FB6F894DEBF0FBECDBF15
:10317000CF91DF911F910F91FF90EF90DF90CF9053
:10318000BF90AF909F908F907F906F905F904F9087
:103190003F902F9008957F928F929F92AF92BF920F
:1031A000CF92DF92EF92FF920F931F93CF93DF9313
:1031B000D82E762EC22E85E0489FA00111248A01C8
:1031C000095A1E4F91E0892E912C8CE5A82E81E0A2
:1031D000B82EA40EB51EF8018491CC2009F4809578
:1031E000C0E0D0E0E82EFF24672D6C0FA4010C2E68
:1031F00002C0440F551F0A94E2F74E215F210C2EA6
:1032000002C0559547950A94E2F78D2D0E94491703
:103210002196C830D10541F70F5F1F4FD3940A158F
:103220001B05C9F6DF91CF911F910F91FF90EF9091
:10323000DF90CF90BF90AF909F908F907F90089538
:10324000EF92FF920F931F93CF93DF93E62EEA0145
:10325000F22E082F10E007C0802F6E2D2F2D0E9418
:10326000CB180B5F1F5FFE01E10FF11D408144236E
:1032700099F7DF91CF911F910F91FF90EF900895F3
:10328000CF93DF9380E060E00E94B519C9E2D3E0FC
:1032900081E069910E94531985E0C132D807C1F7D6
:1032A000DF91CF91089595B18295880F807E9F7DA3
:1032B000982B95B95F9827E030E070E08F98CB01AC
:1032C000022E02C0959587950A94E2F780FF02C00E
:1032D0002E9A01C02E988F9A215030408FEF2F3FA9
:1032E000380761F75F9A08951F93182F579A249A09
:1032F000259A269A879A2C985F9A2C9A80E061E208
:103300000E945319106880E0612F0E94531980E0D9
:1033100064E00E94531980E063E10E94531980E049
:103320006CE00E94531980E060E20E94531980E033
:103330006CE00E94531980E060E40E94531980E021
:1033400060E80E9453191F910895CF93DF93C0E066
:10335000D0E081E060E00E945319219681E0C83FEF
:10336000D807B9F7DF91CF9108951F93182F6064A4
:1033700080E00E945319106880E0612F0E94531969
:103380001F910895AF92BF92CF92EF920F931F9328
:10339000FC014083518362837383048315832683F6
:1033A0003783E08AC18AB48AA38A81E0828B80E075
:1033B00090E0A0E0B0E080879187A287B387848700
:1033C0009587A687B7871F910F91EF90CF90BF90F9
:1033D000AF9008952F923F925F926F927F928F925B
:1033E0009F92AF92BF92CF92DF92EF92FF920F9394
:1033F0001F93CF93DF938C01DC0152968C915297EF
:10340000882309F47FC06D917D918D919C910E94DC
:1034100036200E94EC1E3B01F80124813581468153
:103420005781643571050CF06DC0D80150968C91B0
:10343000C82FD0E0CE01860D971D181619060CF086
:1034400061C0CA01B9010E9436200E94EC1E4B01E6
:10345000603371050CF056C0F80181899401280F82
:10346000311D121613060CF04DC057E0A52EB12CDD
:10347000AC0EBD1E43E0B594A7944A95E1F7EE2447
:10348000FF24CC24DD2437E0232E312C30C0CE01A4
:1034900023E0959587952A95E1F7D8015396ED910C
:1034A000FC915497EC0DFD1DE80FF91F408150E091
:1034B000CE0187709070F101E81BF90B02C05595A1
:1034C0004795EA95E2F741709E01260D822F652D02
:1034D0000E9449172196D80150968C9190E0C81708
:1034E000D907ACF20894E11CF11CCA0CDB1CF801F2
:1034F000818990E0E816F9062CF4C0E0D0E05E2C5B
:10350000580CE9CFDF91CF911F910F91FF90EF9071
:10351000DF90CF90BF90AF909F908F907F906F90F3
:103520005F903F902F900895A1E1B0E0EAE9FAE1C1
:103530000C9492203C017F876E876A01FC01178200
:103540001682838181FD03C06FEF7FEF6FC39E0101
:103550002F5F3F4F398B288BF3012381EE85FF8549
:1035600023FD859123FF8191FF87EE87882309F44E
:103570005AC3853251F4EE85FF8523FD859123FFE3
:103580008191FF87EE87853229F490E0B3010E9494
:103590002C22E2CF982F10E0882499241032B0F426
:1035A0009B3269F09C3228F4903251F0933271F4DE
:1035B0000BC09D3239F0903349F4116028C012607D
:1035C000146025C0186023C0106121C017FD2AC0F7
:1035D000892F80538A3078F416FF06C0FAE09F9E48
:1035E000902C1124980E13C03AE0839E802C112455
:1035F000880E10620CC09E3221F416FD14C31064B4
:1036000006C09C3611F4106802C0983659F4EE8555
:10361000FF8523FD959123FF9191FF87EE879923E5
:1036200009F0BCCF892F8554833020F4812F80612D
:10363000905E07C0892F8556833008F09FC1812F87
:103640008F7E86FD02C076E0972E6FE3F62EF8227D
:10365000953619F4F0E4FF2A07C0963619F420E8ED
:10366000F22A02C091109A94F7FE0AC03BE3391582
:1036700018F45CE3B52E02C0B92CB39427E009C05E
:1036800047E0491520F4BB2447E0942EF7CF292DBD
:10369000BB24C60104969D878C87F60160817181E9
:1036A00082819381AE014F5F5F4F0B2D0E943E21BF
:1036B0006C010981202E332400FF04C003FD02C0E9
:1036C0001DE209C0F1FE02C01BE205C0F2FC02C00F
:1036D00010E001C010E2C1018C709070892BB9F12B
:1036E000112311F483E001C084E0881510F08824D0
:1036F0000AC0881AF3FC07C080E290E0B3010E9480
:103700002C228A94C9F7112329F0812F90E0B3016C
:103710000E942C2223FE03C007ED13E00EC00BED28
:1037200013E00BC0E114F10409F0805290E0B30102
:103730000E942C220F5F1F4F05C0EF2CFF24F0E1E9
:10374000EF22FF24F8018491882361F714C1F7FE6A
:1037500012C0BC0C24FE04C08A81813309F4BA94DF
:103760001B141CF0BB24B3942DC0F8E0FB1550F5DE
:1037700038E0B32E27C0F6FC25C0892D90E08C15CB
:103780009D054CF02CEFC2162FEFD20624F030E846
:10379000F32A01C09A94992049F0E2E0F0E0EC0F9E
:1037A000FD1FE90DF11D80818033A1F3F7FE0AC0F2
:1037B000B92CB394892D90E0C816D90614F0992439
:1037C00001C09C18F7FC03C025E030E009C01C14C0
:1037D0001D041CF021E030E003C096012F5F3F4F35
:1037E000112311F02F5F3F4F992029F0892D90E090
:1037F0000196280F391F882D90E02817390714F0FB
:10380000882401C0821A4F2C5524C20189709070FF
:10381000892B39F008C080E290E0B3010E942C228D
:103820008A948820C1F7112329F0812F90E0B301F9
:103830000E942C2243FE07C008C080E390E0B30141
:103840000E942C228A948820C1F7F7FE46C0860188
:10385000D7FE02C000E010E076010894E11CF11CE4
:10386000E01AF10A41E050E04C0F5D1FE40EF51E36
:1038700026014B185108892D90E0AA24BB24A81AD0
:10388000B90A5FEF0F3F150729F48EE290E0B3010C
:103890000E942C22C016D10634F0401651061CF4AA
:1038A000F701808101C080E3015010400894E11CC1
:1038B000F11C0A151B052CF090E0B3010E942C228C
:1038C000E0CF0C151D0539F49A81963318F4953321
:1038D00011F424FE81E390E04BC08A81813309F02A
:1038E0000F7E90E0B3010E942C229920A1F08EE27D
:1038F00090E0B3010E942C2212E0E1E0F0E0EC0F36
:10390000FD1FE10FF11D1F5F808190E0B3010E9458
:103910002C229A9491F744FC03C085E690E002C003
:1039200085E490E0B3010E942C22D7FC05C0C114AD
:10393000D10441F404FF06C0D094C194D108D394BB
:103940008DE201C08BE290E0B3010E942C2280E363
:1039500005C08F5F26EF3FEFC20ED31E3AE0C316BD
:10396000D104BCF790E0B3010E942C22C601C0969E
:10397000B3010E942C22CC84DD8452C1933631F0F5
:10398000933799F0933509F059C023C0F60180812F
:1039900089835E010894A11CB11C22E030E0C20EB4
:1039A000D31E21E0E22EF12C12C0F601A080B180DE
:1039B00016FD03C06FEF7FEF02C0692D70E022E0BB
:1039C00030E0C20ED31EC5010E9421227C011F7768
:1039D00013C0F601A080B18016FD03C06FEF7FEF2A
:1039E00002C0692D70E022E030E0C20ED31EC50196
:1039F0000E9416227C01106813FF07C01BC080E2E2
:103A000090E0B3010E942C228A94882D90E0E81661
:103A1000F906A8F30FC0F50117FD859117FF8191F5
:103A20005F0190E0B3010E942C2281108A940894D7
:103A3000E108F108E114F10471F7F2C0943611F0D5
:103A4000993689F517FF08C0F6012081318142813E
:103A5000538184E090E00AC0F601808191819C014D
:103A6000442737FD4095542F82E090E0C80ED91EC0
:103A70009FE6F92EF12257FF09C0509540953095E9
:103A800021953F4F4F4F5F4F90E8F92ACA01B90186
:103A9000AE014F5F5F4F2AE030E00E948922E82E9E
:103AA000E889EE1A41C0953721F41F7E2AE030E004
:103AB0001CC0197F9F3661F0903720F4983509F0CB
:103AC000B2C00FC0903739F0983709F0ACC004C0CD
:103AD00028E030E00AC0106114FD146020E130E0FD
:103AE00004C014FD166020E132E017FF08C0F601A3
:103AF000608171818281938144E050E008C0F601C9
:103B000080819181BC0180E090E042E050E0C40EF1
:103B1000D51EAE014F5F5F4F0E948922E82E588963
:103B2000E51A8FE7F82EF122F6FE0BC08EEFF82291
:103B3000E91438F4F4FE07C0F2FC05C09FEEF92248
:103B400002C01E2D01C0192DF4FE0DC0FE01EE0DA8
:103B5000F11D8081803319F4E9EEFE2208C01F5F59
:103B6000F2FE05C003C08F2D867809F01F5F0F2D70
:103B7000F3FC14C0F0FE0FC0181510F09E2C0BC003
:103B80009E2C980C911A182D06C080E290E0B3018B
:103B90000E942C221F5F1815C0F304C0181510F4E2
:103BA000811A01C0882404FF0FC080E390E0B301B4
:103BB0000E942C2202FF1DC001FD03C088E790E097
:103BC0000EC088E590E00BC0802F867891F001FF51
:103BD00002C08BE201C080E2F7FC8DE290E0B3010D
:103BE0000E942C2206C080E390E0B3010E942C22A8
:103BF0009A94E914C0F3EA94E1E0F0E0EC0FFD1FC1
:103C0000EE0DF11D808190E0B3010E942C22EE2088
:103C100091F706C080E290E0B3010E942C228A94C2
:103C20008820C1F799CCF30166817781CB01619639
:103C3000E2E10C94AE205058BB27AA270ED075C1E4
:103C400066D130F06BD120F031F49F3F11F41EF4B7
:103C50005BC10EF4E095E7FB51C1E92F77D180F30A
:103C6000BA17620773078407950718F071F49EF579
:103C70008FC10EF4E0950B2EBA2FA02D0B01B901C8
:103C800090010C01CA01A0011124FF27591B99F0D2
:103C9000593F50F4503E68F11A16F040A22F232FDE
:103CA000342F4427585FF3CF469537952795A7952E
:103CB000F0405395C9F77EF41F16BA0B620B730BD5
:103CC000840BBAF09150A1F0FF0FBB1F661F771F46
:103CD000881FC2F70EC0BA0F621F731F841F48F4FB
:103CE000879577956795B795F7959E3F08F0B3CF81
:103CF0009395880F08F09927EE0F9795879508956B
:103D0000D9D008F481E008950CD00FC107D140F05C
:103D1000FED030F021F45F3F19F0F0C0511139C1ED
:103D2000F3C014D198F39923C9F35523B1F3951B2C
:103D3000550BBB27AA2762177307840738F09F5FCC
:103D40005F4F220F331F441FAA1FA9F333D00E2E3B
:103D50003AF0E0E830D091505040E695001CCAF7A8
:103D600029D0FE2F27D0660F771F881FBB1F26176D
:103D700037074807AB07B0E809F0BB0B802DBF0140
:103D8000FF2793585F4F2AF09E3F510568F0B6C059
:103D900000C15F3FECF3983EDCF38695779567951D
:103DA000B795F7959F5FC9F7880F911D96958795F1
:103DB00097F90895E1E0660F771F881FBB1F621710
:103DC00073078407BA0720F0621B730B840BBA0BCE
:103DD000EE1F88F7E095089504D06894B111D9C01A
:103DE0000895BCD088F09F5790F0B92F9927B7510C
:103DF000A0F0D1F0660F771F881F991F1AF0BA95AF
:103E0000C9F712C0B13081F0C3D0B1E00895C0C08D
:103E1000672F782F8827B85F39F0B93FCCF38695A4
:103E200077956795B395D9F73EF490958095709501
:103E300061957F4F8F4F9F4F0895E89409C097FB7E
:103E40003EF490958095709561957F4F8F4F9F4F71
:103E50009923A9F0F92F96E9BB279395F6958795B5
:103E600077956795B795F111F8CFFAF4BB0F11F478
:103E700060FF1BC06F5F7F4F8F4F9F4F16C088231F
:103E800011F096E911C0772321F09EE8872F762F55
:103E900005C0662371F096E8862F70E060E02AF096
:103EA0009A95660F771F881FDAF7880F9695879582
:103EB00097F90895990F0008550FAA0BE0E8FEEF57
:103EC00016161706E807F907C0F012161306E407DE
:103ED000F50798F0621B730B840B950B39F40A26D7
:103EE00061F0232B242B252B21F408950A2609F4B5
:103EF000A140A6958FEF811D811D089597F99F67B9
:103F000080E870E060E008959FEF80EC0895002461
:103F10000A941616170618060906089500240A942E
:103F200012161306140605060895092E0394000CB4
:103F300011F4882352F0BB0F40F4BF2B11F460FF43
:103F400004C06F5F7F4F8F4F9F4F089557FD90586C
:103F5000440F551F59F05F3F71F04795880F97FB4D
:103F6000991F61F09F3F79F0879508951216130607
:103F70001406551FF2CF4695F1DF08C01616170636
:103F80001806991FF1CF869571056105089408956B
:103F9000E894BB2766277727CB0197F908958ADF36
:103FA00008F48FEF08950BD0C0CFB1DF28F0B6DF53
:103FB00018F0952309F0A2CFA7CF1124EACFC6DFCE
:103FC000A0F3959FD1F3950F50E0551F629FF0012C
:103FD000729FBB27F00DB11D639FAA27F00DB11D85
:103FE000AA1F649F6627B00DA11D661F829F22270E
:103FF000B00DA11D621F739FB00DA11D621F839F95
:10400000A00D611D221F749F3327A00D611D231F6A
:10401000849F600D211D822F762F6A2F11249F57B8
:1040200050408AF0E1F088234AF0EE0FFF1FBB1FDB
:10403000661F771F881F91505040A9F79E3F51057A
:1040400070F05CCFA6CF5F3FECF3983EDCF3869533
:1040500077956795B795F795E7959F5FC1F7FE2B25
:10406000880F911D9695879597F9089577DFE0F071
:104070009E37D8F09639B8F49E3848F4672F782FD9
:104080008827985FF9CF86957795679593959539A9
:10409000D0F3B62FB1706B0F711D811D20F4879581
:1040A00077956795939502C01CC073CF882371F4F0
:1040B000772321F09850872B762F07C0662311F4C1
:1040C00099270DC09051862B70E060E02AF09A95F8
:1040D000660F771F881FDAF7880F9695879597F9EF
:1040E00008959F3F31F0915020F48795779567951B
:1040F000B795880F911D9695879597F9089597FB29
:10410000092E07260AD077FD04D043D006D0002020
:104110001AF4709561957F4F0895F6F79095819503
:104120009F4F08952F923F924F925F926F927F928E
:104130008F929F92AF92BF92CF92DF92EF92FF92B7
:104140000F931F93CF93DF93CDB7DEB7CA1BDB0B63
:104150000FB6F894DEBF0FBECDBF09942A88398808
:1041600048885F846E847D848C849B84AA84B9840F
:10417000C884DF80EE80FD800C811B81AA81B9811B
:10418000CE0FD11D0FB6F894DEBF0FBECDBFED012F
:104190000895AA1BBB1B51E107C0AA1FBB1FA6178E
:1041A000B70710F0A61BB70B881F991F5A95A9F7E0
:1041B00080959095BC01CD010895A0E0B0E0E3EEBC
:1041C000F0E20C949A20EC01A880B980CA80DB80D0
:1041D000A114B104C104D10441F484E2A82E89EDF4
:1041E000B82E8BE5C82E87E0D82EC601B5012DE18B
:1041F00033EF41E050E00E94062327EA31E440E03B
:1042000050E00E94E7227B018C01C601B5012DE13F
:1042100033EF41E050E00E940623CA01B9012CEEC1
:1042200034EF4FEF5FEF0E94E7226E0D7F1D801F7E
:10423000911F97FF04C06150704080409048688390
:1042400079838A839B839B013F77C901CDB7DEB712
:10425000EAE00C94B6200E94DD20089589EC91E0FC
:104260000E94DD200895A0E0B0E08093C901909302
:10427000CA01A093CB01B093CC010895283008F077
:1042800027E03327DA01990F311D87FD91600096F1
:104290006105710539F432602E5F3D9330E32A9554
:1042A000E1F708959F3F30F080387105610509F00E
:1042B0003C5F3C5F3D93913008F08068911DDF9337
:1042C000CF931F930F93FF92EF92192F987F96959C
:1042D000E92F96959695E90FFF27E75CFB4F992705
:1042E0003327EE24FF24A701E701059008940794E3
:1042F00028F4360FE71EF81E491F511D660F771F61
:10430000881F991F0694A1F70590079428F4E70EDB
:10431000F81E491F561FC11D770F881F991F661F62
:104320000694A1F70590079428F4F80E491F561F2C
:10433000C71FD11D880F991F661F771F0694A1F70D
:104340000590079420F4490F561FC71FD81F990FD7
:10435000661F771F881F0694A9F784911095177020
:1043600041F0D695C79557954795F794E7941A95D8
:10437000C1F7EFEDF3E068941590159135916591D3
:10438000959105907FE27395E118F10A430B560B66
:10439000C90BD009C0F7E10CF11E431F561FC91FFE
:1043A000D01D7EF4703311F48A95E6CFE894015065
:1043B00030F0080F0AF40027021708F4202F239585
:1043C000022F7A3328F079E37D932A95E9F710C01C
:1043D0007D932A9589F60694979567953795179555
:1043E0001794E118F10A430B560BC90BD00998F04A
:1043F00023957E9173957A3308F070E37C932013B4
:10440000B8F77E9170617D9330F0839571E37D9371
:1044100070E32A95E1F71124EF90FF900F911F911F
:10442000CF91DF91992787FD90950895FC01059024
:10443000615070400110D8F7809590958E0F9F1FA6
:104440000895FC016150704001900110D8F78095EB
:1044500090958E0F9F1F08950F931F93CF93DF9317
:104460008C01EB018B8181FF1BC082FF0DC02E816F
:104470003F818C819D812817390764F4E881F98197
:104480000193F983E88306C0E885F985802F0995B3
:10449000892B31F48E819F8101969F838E8302C088
:1044A0000FEF1FEFC801DF91CF911F910F9108957A
:1044B000AEE0B0E0EEE5F2E20C94A0200D891E899A
:1044C0008F89988D97FF02C080E090E801979E83C6
:1044D0008D831A83098386E08C839E01255E3F4F7E
:1044E000CE010196698D7A8DA9010E94941A4D81A1
:1044F0005E8157FD0AC02F813885421753070CF49F
:104500009A01020F131FF80110822E96E4E00C941A
:10451000BC20FA01AA27283051F1203181F1E8941A
:104520006F936E7F6E5F7F4F8F4F9F4FAF4FB1E0A6
:104530003ED0B4E03CD0670F781F891F9A1FA11DA1
:10454000680F791F8A1F911DA11D6A0F711D811DA2
:10455000911DA11D20D009F468943F912AE0269F67
:1045600011243019305D3193DEF6CF010895462FC6
:104570004770405D4193B3E00FD0C9F7F6CF462FA7
:104580004F70405D4A3318F0495D31FD4052419310
:1045900002D0A9F7EACFB4E0A695979587957795CD
:1045A0006795BA95C9F700976105710508959B0154
:1045B000AC010A2E06945795479537952795BA95DD
:1045C000C9F7620F731F841F951FA01D0895629F76
:1045D000D001739FF001829FE00DF11D649FE00DFB
:1045E000F11D929FF00D839FF00D749FF00D659F5C
:1045F000F00D9927729FB00DE11DF91F639FB00D5B
:10460000E11DF91FBD01CF011124089597FB092E6B
:1046100005260ED057FD04D014D00AD0001C38F463
:1046200050954095309521953F4F4F4F5F4F0895DE
:10463000F6F790958095709561957F4F8F4F9F4FBE
:104640000895A1E21A2EAA1BBB1BFD010DC0AA1FD3
:10465000BB1FEE1FFF1FA217B307E407F50720F0EB
:10466000A21BB30BE40BF50B661F771F881F991F66
:104670001A9469F760957095809590959B01AC01AF
:0A468000BD01CF010895F894FFCFAB
:10468A0057454C434F4D4520544F2052545A4D00E4
:10469A004B4556494E2044554F4E47004E39393303
:1046AA0034373331002D3E4D4944444C4520535450
:1046BA0049434B0025640047414D45204F5645521A
:1046CA0000594F552057494E210044495354414EF1
:1046DA0043450054494D450053573220544F205208
:1046EA004553544152540047414D4520504155537A
:1046FA00454400483A20202000533A202000463AF8
:10470A00202020000164000000C84201000500F8D2
:10471A00102040F884FCFC84847EFFFF2020707007
:10472A00F82020182442FF819999FFFE82BAA2B28A
:10473A00A2A2FEFF00FF080302007EC3DB7E5AC36B
:0E474A00C37E00E10000000008010000000036
:00000001FF
